{
  "_format": "hh-sol-artifact-1",
  "contractName": "D1DC",
  "sourceName": "contracts/D1DC.sol",
  "abi": [
    {
      "inputs": [
        {
          "internalType": "string",
          "name": "_name",
          "type": "string"
        },
        {
          "internalType": "string",
          "name": "_symbol",
          "type": "string"
        },
        {
          "internalType": "uint256",
          "name": "_baseRentalPrice",
          "type": "uint256"
        },
        {
          "internalType": "uint32",
          "name": "_rentalPeriod",
          "type": "uint32"
        },
        {
          "internalType": "uint32",
          "name": "_priceMultiplier",
          "type": "uint32"
        },
        {
          "internalType": "address",
          "name": "_revenueAccount",
          "type": "address"
        }
      ],
      "stateMutability": "nonpayable",
      "type": "constructor"
    },
    {
      "anonymous": false,
      "inputs": [
        {
          "indexed": true,
          "internalType": "address",
          "name": "owner",
          "type": "address"
        },
        {
          "indexed": true,
          "internalType": "address",
          "name": "approved",
          "type": "address"
        },
        {
          "indexed": true,
          "internalType": "uint256",
          "name": "tokenId",
          "type": "uint256"
        }
      ],
      "name": "Approval",
      "type": "event"
    },
    {
      "anonymous": false,
      "inputs": [
        {
          "indexed": true,
          "internalType": "address",
          "name": "owner",
          "type": "address"
        },
        {
          "indexed": true,
          "internalType": "address",
          "name": "operator",
          "type": "address"
        },
        {
          "indexed": false,
          "internalType": "bool",
          "name": "approved",
          "type": "bool"
        }
      ],
      "name": "ApprovalForAll",
      "type": "event"
    },
    {
      "anonymous": false,
      "inputs": [
        {
          "indexed": true,
          "internalType": "contract INameResolver",
          "name": "resolver",
          "type": "address"
        }
      ],
      "name": "DefaultResolverChanged",
      "type": "event"
    },
    {
      "anonymous": false,
      "inputs": [
        {
          "indexed": true,
          "internalType": "string",
          "name": "name",
          "type": "string"
        },
        {
          "indexed": true,
          "internalType": "address",
          "name": "renter",
          "type": "address"
        },
        {
          "indexed": false,
          "internalType": "uint256",
          "name": "price",
          "type": "uint256"
        },
        {
          "indexed": false,
          "internalType": "string",
          "name": "url",
          "type": "string"
        }
      ],
      "name": "NameRented",
      "type": "event"
    },
    {
      "anonymous": false,
      "inputs": [
        {
          "indexed": true,
          "internalType": "address",
          "name": "previousOwner",
          "type": "address"
        },
        {
          "indexed": true,
          "internalType": "address",
          "name": "newOwner",
          "type": "address"
        }
      ],
      "name": "OwnershipTransferred",
      "type": "event"
    },
    {
      "anonymous": false,
      "inputs": [
        {
          "indexed": false,
          "internalType": "address",
          "name": "account",
          "type": "address"
        }
      ],
      "name": "Paused",
      "type": "event"
    },
    {
      "anonymous": false,
      "inputs": [
        {
          "indexed": false,
          "internalType": "address",
          "name": "from",
          "type": "address"
        },
        {
          "indexed": false,
          "internalType": "address",
          "name": "to",
          "type": "address"
        }
      ],
      "name": "RevenueAccountChanged",
      "type": "event"
    },
    {
      "anonymous": false,
      "inputs": [
        {
          "indexed": true,
          "internalType": "address",
          "name": "from",
          "type": "address"
        },
        {
          "indexed": true,
          "internalType": "address",
          "name": "to",
          "type": "address"
        },
        {
          "indexed": true,
          "internalType": "uint256",
          "name": "tokenId",
          "type": "uint256"
        }
      ],
      "name": "Transfer",
      "type": "event"
    },
    {
      "anonymous": false,
      "inputs": [
        {
          "indexed": true,
          "internalType": "string",
          "name": "name",
          "type": "string"
        },
        {
          "indexed": true,
          "internalType": "address",
          "name": "renter",
          "type": "address"
        },
        {
          "indexed": false,
          "internalType": "string",
          "name": "oldUrl",
          "type": "string"
        },
        {
          "indexed": false,
          "internalType": "string",
          "name": "newUrl",
          "type": "string"
        }
      ],
      "name": "URLUpdated",
      "type": "event"
    },
    {
      "anonymous": false,
      "inputs": [
        {
          "indexed": false,
          "internalType": "address",
          "name": "account",
          "type": "address"
        }
      ],
      "name": "Unpaused",
      "type": "event"
    },
    {
      "inputs": [
        {
          "internalType": "address",
          "name": "to",
          "type": "address"
        },
        {
          "internalType": "uint256",
          "name": "tokenId",
          "type": "uint256"
        }
      ],
      "name": "approve",
      "outputs": [],
      "stateMutability": "nonpayable",
      "type": "function"
    },
    {
      "inputs": [
        {
          "internalType": "address",
          "name": "owner",
          "type": "address"
        }
      ],
      "name": "balanceOf",
      "outputs": [
        {
          "internalType": "uint256",
          "name": "",
          "type": "uint256"
        }
      ],
      "stateMutability": "view",
      "type": "function"
    },
    {
      "inputs": [],
      "name": "baseRentalPrice",
      "outputs": [
        {
          "internalType": "uint256",
          "name": "",
          "type": "uint256"
        }
      ],
      "stateMutability": "view",
      "type": "function"
    },
    {
      "inputs": [],
      "name": "defaultResolver",
      "outputs": [
        {
          "internalType": "contract INameResolver",
          "name": "",
          "type": "address"
        }
      ],
      "stateMutability": "view",
      "type": "function"
    },
    {
      "inputs": [],
      "name": "finishInitialization",
      "outputs": [],
      "stateMutability": "nonpayable",
      "type": "function"
    },
    {
      "inputs": [
        {
          "internalType": "uint256",
          "name": "tokenId",
          "type": "uint256"
        }
      ],
      "name": "getApproved",
      "outputs": [
        {
          "internalType": "address",
          "name": "",
          "type": "address"
        }
      ],
      "stateMutability": "view",
      "type": "function"
    },
    {
      "inputs": [
        {
          "internalType": "bytes32",
          "name": "encodedName",
          "type": "bytes32"
        }
      ],
      "name": "getPrice",
      "outputs": [
        {
          "internalType": "uint256",
          "name": "",
          "type": "uint256"
        }
      ],
      "stateMutability": "view",
      "type": "function"
    },
    {
      "inputs": [
        {
          "internalType": "uint256",
          "name": "start",
          "type": "uint256"
        },
        {
          "internalType": "uint256",
          "name": "end",
          "type": "uint256"
        }
      ],
      "name": "getRecordKeys",
      "outputs": [
        {
          "internalType": "bytes32[]",
          "name": "",
          "type": "bytes32[]"
        }
      ],
      "stateMutability": "view",
      "type": "function"
    },
    {
      "inputs": [
        {
          "internalType": "string[]",
          "name": "_names",
          "type": "string[]"
        },
        {
          "components": [
            {
              "internalType": "address",
              "name": "renter",
              "type": "address"
            },
            {
              "internalType": "uint32",
              "name": "timeUpdated",
              "type": "uint32"
            },
            {
              "internalType": "uint256",
              "name": "lastPrice",
              "type": "uint256"
            },
            {
              "internalType": "string",
              "name": "url",
              "type": "string"
            },
            {
              "internalType": "string",
              "name": "prev",
              "type": "string"
            },
            {
              "internalType": "string",
              "name": "next",
              "type": "string"
            }
          ],
          "internalType": "struct D1DC.NameRecord[]",
          "name": "_records",
          "type": "tuple[]"
        }
      ],
      "name": "initialize",
      "outputs": [],
      "stateMutability": "nonpayable",
      "type": "function"
    },
    {
      "inputs": [],
      "name": "initialized",
      "outputs": [
        {
          "internalType": "bool",
          "name": "",
          "type": "bool"
        }
      ],
      "stateMutability": "view",
      "type": "function"
    },
    {
      "inputs": [
        {
          "internalType": "address",
          "name": "owner",
          "type": "address"
        },
        {
          "internalType": "address",
          "name": "operator",
          "type": "address"
        }
      ],
      "name": "isApprovedForAll",
      "outputs": [
        {
          "internalType": "bool",
          "name": "",
          "type": "bool"
        }
      ],
      "stateMutability": "view",
      "type": "function"
    },
    {
      "inputs": [
        {
          "internalType": "uint256",
          "name": "",
          "type": "uint256"
        }
      ],
      "name": "keys",
      "outputs": [
        {
          "internalType": "bytes32",
          "name": "",
          "type": "bytes32"
        }
      ],
      "stateMutability": "view",
      "type": "function"
    },
    {
      "inputs": [],
      "name": "lastCreated",
      "outputs": [
        {
          "internalType": "string",
          "name": "",
          "type": "string"
        }
      ],
      "stateMutability": "view",
      "type": "function"
    },
    {
      "inputs": [],
      "name": "lastRented",
      "outputs": [
        {
          "internalType": "string",
          "name": "",
          "type": "string"
        }
      ],
      "stateMutability": "view",
      "type": "function"
    },
    {
      "inputs": [],
      "name": "name",
      "outputs": [
        {
          "internalType": "string",
          "name": "",
          "type": "string"
        }
      ],
      "stateMutability": "view",
      "type": "function"
    },
    {
      "inputs": [
        {
          "internalType": "address",
          "name": "addr",
          "type": "address"
        }
      ],
      "name": "nameOf",
      "outputs": [
        {
          "internalType": "string",
          "name": "",
          "type": "string"
        }
      ],
      "stateMutability": "view",
      "type": "function"
    },
    {
      "inputs": [
        {
          "internalType": "bytes32",
          "name": "",
          "type": "bytes32"
        }
      ],
      "name": "nameRecords",
      "outputs": [
        {
          "internalType": "address",
          "name": "renter",
          "type": "address"
        },
        {
          "internalType": "uint32",
          "name": "timeUpdated",
          "type": "uint32"
        },
        {
          "internalType": "uint256",
          "name": "lastPrice",
          "type": "uint256"
        },
        {
          "internalType": "string",
          "name": "url",
          "type": "string"
        },
        {
          "internalType": "string",
          "name": "prev",
          "type": "string"
        },
        {
          "internalType": "string",
          "name": "next",
          "type": "string"
        }
      ],
      "stateMutability": "view",
      "type": "function"
    },
    {
      "inputs": [],
      "name": "numRecords",
      "outputs": [
        {
          "internalType": "uint256",
          "name": "",
          "type": "uint256"
        }
      ],
      "stateMutability": "view",
      "type": "function"
    },
    {
      "inputs": [],
      "name": "owner",
      "outputs": [
        {
          "internalType": "address",
          "name": "",
          "type": "address"
        }
      ],
      "stateMutability": "view",
      "type": "function"
    },
    {
      "inputs": [
        {
          "internalType": "uint256",
          "name": "tokenId",
          "type": "uint256"
        }
      ],
      "name": "ownerOf",
      "outputs": [
        {
          "internalType": "address",
          "name": "",
          "type": "address"
        }
      ],
      "stateMutability": "view",
      "type": "function"
    },
    {
      "inputs": [],
      "name": "pause",
      "outputs": [],
      "stateMutability": "nonpayable",
      "type": "function"
    },
    {
      "inputs": [],
      "name": "paused",
      "outputs": [
        {
          "internalType": "bool",
          "name": "",
          "type": "bool"
        }
      ],
      "stateMutability": "view",
      "type": "function"
    },
    {
      "inputs": [],
      "name": "priceMultiplier",
      "outputs": [
        {
          "internalType": "uint32",
          "name": "",
          "type": "uint32"
        }
      ],
      "stateMutability": "view",
      "type": "function"
    },
    {
      "inputs": [],
      "name": "renounceOwnership",
      "outputs": [],
      "stateMutability": "nonpayable",
      "type": "function"
    },
    {
      "inputs": [
        {
          "internalType": "string",
          "name": "name",
          "type": "string"
        },
        {
          "internalType": "string",
          "name": "url",
          "type": "string"
        }
      ],
      "name": "rent",
      "outputs": [],
      "stateMutability": "payable",
      "type": "function"
    },
    {
      "inputs": [],
      "name": "rentalPeriod",
      "outputs": [
        {
          "internalType": "uint32",
          "name": "",
          "type": "uint32"
        }
      ],
      "stateMutability": "view",
      "type": "function"
    },
    {
      "inputs": [],
      "name": "revenueAccount",
      "outputs": [
        {
          "internalType": "address",
          "name": "",
          "type": "address"
        }
      ],
      "stateMutability": "view",
      "type": "function"
    },
    {
      "inputs": [
        {
          "internalType": "address",
          "name": "from",
          "type": "address"
        },
        {
          "internalType": "address",
          "name": "to",
          "type": "address"
        },
        {
          "internalType": "uint256",
          "name": "tokenId",
          "type": "uint256"
        }
      ],
      "name": "safeTransferFrom",
      "outputs": [],
      "stateMutability": "nonpayable",
      "type": "function"
    },
    {
      "inputs": [
        {
          "internalType": "address",
          "name": "from",
          "type": "address"
        },
        {
          "internalType": "address",
          "name": "to",
          "type": "address"
        },
        {
          "internalType": "uint256",
          "name": "tokenId",
          "type": "uint256"
        },
        {
          "internalType": "bytes",
          "name": "data",
          "type": "bytes"
        }
      ],
      "name": "safeTransferFrom",
      "outputs": [],
      "stateMutability": "nonpayable",
      "type": "function"
    },
    {
      "inputs": [
        {
          "internalType": "address",
          "name": "operator",
          "type": "address"
        },
        {
          "internalType": "bool",
          "name": "approved",
          "type": "bool"
        }
      ],
      "name": "setApprovalForAll",
      "outputs": [],
      "stateMutability": "nonpayable",
      "type": "function"
    },
    {
      "inputs": [
        {
          "internalType": "uint256",
          "name": "_baseRentalPrice",
          "type": "uint256"
        }
      ],
      "name": "setBaseRentalPrice",
      "outputs": [],
      "stateMutability": "nonpayable",
      "type": "function"
    },
    {
      "inputs": [
        {
          "internalType": "address",
          "name": "resolver",
          "type": "address"
        }
      ],
      "name": "setDefaultResolver",
      "outputs": [],
      "stateMutability": "nonpayable",
      "type": "function"
    },
    {
      "inputs": [
        {
          "internalType": "string",
          "name": "name",
          "type": "string"
        }
      ],
      "name": "setNameForRenter",
      "outputs": [],
      "stateMutability": "nonpayable",
      "type": "function"
    },
    {
      "inputs": [
        {
          "internalType": "uint32",
          "name": "_priceMultiplier",
          "type": "uint32"
        }
      ],
      "name": "setPriceMultiplier",
      "outputs": [],
      "stateMutability": "nonpayable",
      "type": "function"
    },
    {
      "inputs": [
        {
          "internalType": "uint32",
          "name": "_rentalPeriod",
          "type": "uint32"
        }
      ],
      "name": "setRentalPeriod",
      "outputs": [],
      "stateMutability": "nonpayable",
      "type": "function"
    },
    {
      "inputs": [
        {
          "internalType": "address",
          "name": "_revenueAccount",
          "type": "address"
        }
      ],
      "name": "setRevenueAccount",
      "outputs": [],
      "stateMutability": "nonpayable",
      "type": "function"
    },
    {
      "inputs": [
        {
          "internalType": "bytes4",
          "name": "interfaceId",
          "type": "bytes4"
        }
      ],
      "name": "supportsInterface",
      "outputs": [
        {
          "internalType": "bool",
          "name": "",
          "type": "bool"
        }
      ],
      "stateMutability": "view",
      "type": "function"
    },
    {
      "inputs": [],
      "name": "symbol",
      "outputs": [
        {
          "internalType": "string",
          "name": "",
          "type": "string"
        }
      ],
      "stateMutability": "view",
      "type": "function"
    },
    {
      "inputs": [
        {
          "internalType": "uint256",
          "name": "tokenId",
          "type": "uint256"
        }
      ],
      "name": "tokenURI",
      "outputs": [
        {
          "internalType": "string",
          "name": "",
          "type": "string"
        }
      ],
      "stateMutability": "view",
      "type": "function"
    },
    {
      "inputs": [
        {
          "internalType": "address",
          "name": "from",
          "type": "address"
        },
        {
          "internalType": "address",
          "name": "to",
          "type": "address"
        },
        {
          "internalType": "uint256",
          "name": "tokenId",
          "type": "uint256"
        }
      ],
      "name": "transferFrom",
      "outputs": [],
      "stateMutability": "nonpayable",
      "type": "function"
    },
    {
      "inputs": [
        {
          "internalType": "address",
          "name": "newOwner",
          "type": "address"
        }
      ],
      "name": "transferOwnership",
      "outputs": [],
      "stateMutability": "nonpayable",
      "type": "function"
    },
    {
      "inputs": [],
      "name": "unpause",
      "outputs": [],
      "stateMutability": "nonpayable",
      "type": "function"
    },
    {
      "inputs": [
        {
          "internalType": "string",
          "name": "name",
          "type": "string"
        },
        {
          "internalType": "string",
          "name": "url",
          "type": "string"
        }
      ],
      "name": "updateURL",
      "outputs": [],
      "stateMutability": "payable",
      "type": "function"
    },
    {
      "inputs": [],
      "name": "withdraw",
      "outputs": [],
      "stateMutability": "nonpayable",
      "type": "function"
    }
  ],
  "bytecode": "0x60806040523480156200001157600080fd5b5060405162003adf38038062003adf833981016040819052620000349162000207565b8585600062000044838262000350565b50600162000053828262000350565b50506006805460ff19169055506200006b33620000ce565b600893909355600980546001600160a01b039094166801000000000000000002600160401b600160e01b031963ffffffff938416640100000000026001600160401b031990961693909416929092179390931791909116179055506200041c9050565b600680546001600160a01b03838116610100818102610100600160a81b031985161790945560405193909204169182907f8be0079c531659141344cd1fd0a4f28419497f9722a3daafe3b4186f6b6457e090600090a35050565b634e487b7160e01b600052604160045260246000fd5b600082601f8301126200015057600080fd5b81516001600160401b03808211156200016d576200016d62000128565b604051601f8301601f19908116603f0116810190828211818310171562000198576200019862000128565b81604052838152602092508683858801011115620001b557600080fd5b600091505b83821015620001d95785820183015181830184015290820190620001ba565b600093810190920192909252949350505050565b805163ffffffff811681146200020257600080fd5b919050565b60008060008060008060c087890312156200022157600080fd5b86516001600160401b03808211156200023957600080fd5b620002478a838b016200013e565b975060208901519150808211156200025e57600080fd5b506200026d89828a016200013e565b955050604087015193506200028560608801620001ed565b92506200029560808801620001ed565b60a08801519092506001600160a01b0381168114620002b357600080fd5b809150509295509295509295565b600181811c90821680620002d657607f821691505b602082108103620002f757634e487b7160e01b600052602260045260246000fd5b50919050565b601f8211156200034b57600081815260208120601f850160051c81016020861015620003265750805b601f850160051c820191505b81811015620003475782815560010162000332565b5050505b505050565b81516001600160401b038111156200036c576200036c62000128565b62000384816200037d8454620002c1565b84620002fd565b602080601f831160018114620003bc5760008415620003a35750858301515b600019600386901b1c1916600185901b17855562000347565b600085815260208120601f198616915b82811015620003ed57888601518255948401946001909101908401620003cc565b50858210156200040c5787850151600019600388901b60f8161c191681555b5050505050600190811b01905550565b6136b3806200042c6000396000f3fe6080604052600436106102675760003560e01c8063828eab0e11610144578063c66485b2116100b6578063dbafb5701161007a578063dbafb57014610704578063e985e9c514610724578063eb7520421461076d578063f2fde38b1461079f578063f5c57382146107bf578063f5dc7d56146107df57600080fd5b8063c66485b21461065f578063c87b56dd1461067f578063d47f09061461069f578063d50cb88b146106bf578063d8c68149146106e457600080fd5b80638da5cb5b116101085780638da5cb5b146105bd57806395d89b41146105e0578063a22cb465146105f5578063afff5a6414610615578063b5d1990d1461062a578063b88d4fde1461063f57600080fd5b8063828eab0e14610523578063839e5f78146105435780638456cb59146105565780638ab011681461056b5780638c4b84751461058b57600080fd5b806324c1ef17116101dd57806342842e0e116101a157806342842e0e146104695780635c975abb146104895780636352211e146104a157806370a08231146104c1578063715018a6146104e15780637e1afcb5146104f657600080fd5b806324c1ef17146103ec57806330027f3b146103ff57806331d98b3f1461041f5780633ccfd60b1461043f5780633f4ba83a1461045457600080fd5b80630f75e5c01161022f5780630f75e5c01461034b578063158ef93e14610361578063159171dd146103825780631dafc231146103a25780632143f93b146103b757806323b872dd146103cc57600080fd5b806301ffc9a71461026c57806306fdde03146102a1578063081812fc146102c3578063095ea7b3146102fb5780630cb6aaf11461031d575b600080fd5b34801561027857600080fd5b5061028c6102873660046129e5565b610806565b60405190151581526020015b60405180910390f35b3480156102ad57600080fd5b506102b6610858565b6040516102989190612a52565b3480156102cf57600080fd5b506102e36102de366004612a65565b6108ea565b6040516001600160a01b039091168152602001610298565b34801561030757600080fd5b5061031b610316366004612a93565b610911565b005b34801561032957600080fd5b5061033d610338366004612a65565b610a2b565b604051908152602001610298565b34801561035757600080fd5b5061033d60085481565b34801561036d57600080fd5b5060075461028c90600160a01b900460ff1681565b34801561038e57600080fd5b5061031b61039d366004612ad1565b610a4c565b3480156103ae57600080fd5b5061031b610a70565b3480156103c357600080fd5b506102b6610a8d565b3480156103d857600080fd5b5061031b6103e7366004612aee565b610b1b565b61031b6103fa366004612b77565b610b4c565b34801561040b57600080fd5b5061031b61041a366004612be2565b610f4e565b34801561042b57600080fd5b5061033d61043a366004612a65565b610fd5565b34801561044b57600080fd5b5061031b61105f565b34801561046057600080fd5b5061031b6111a8565b34801561047557600080fd5b5061031b610484366004612aee565b6111ba565b34801561049557600080fd5b5060065460ff1661028c565b3480156104ad57600080fd5b506102e36104bc366004612a65565b6111d5565b3480156104cd57600080fd5b5061033d6104dc366004612be2565b611235565b3480156104ed57600080fd5b5061031b6112bb565b34801561050257600080fd5b50610516610511366004612bff565b6112cd565b6040516102989190612c21565b34801561052f57600080fd5b506007546102e3906001600160a01b031681565b61031b610551366004612b77565b6113e3565b34801561056257600080fd5b5061031b611576565b34801561057757600080fd5b5061031b610586366004612ad1565b611586565b34801561059757600080fd5b506009546105a89063ffffffff1681565b60405163ffffffff9091168152602001610298565b3480156105c957600080fd5b5060065461010090046001600160a01b03166102e3565b3480156105ec57600080fd5b506102b66115b6565b34801561060157600080fd5b5061031b610610366004612c65565b6115c5565b34801561062157600080fd5b506102b66115d4565b34801561063657600080fd5b50600d5461033d565b34801561064b57600080fd5b5061031b61065a366004612d10565b6115e1565b34801561066b57600080fd5b5061031b61067a366004612be2565b611619565b34801561068b57600080fd5b506102b661069a366004612a65565b6116c1565b3480156106ab57600080fd5b5061031b6106ba366004612e02565b611734565b3480156106cb57600080fd5b506009546105a890640100000000900463ffffffff1681565b3480156106f057600080fd5b5061031b6106ff366004612e61565b611b57565b34801561071057600080fd5b5061031b61071f366004612a65565b611c49565b34801561073057600080fd5b5061028c61073f366004612ea2565b6001600160a01b03918216600090815260056020908152604080832093909416825291909152205460ff1690565b34801561077957600080fd5b5061078d610788366004612a65565b611c56565b60405161029896959493929190612ed0565b3480156107ab57600080fd5b5061031b6107ba366004612be2565b611e35565b3480156107cb57600080fd5b506102b66107da366004612be2565b611eab565b3480156107eb57600080fd5b506009546102e390600160401b90046001600160a01b031681565b60006001600160e01b031982166380ac58cd60e01b148061083757506001600160e01b03198216635b5e139f60e01b145b8061085257506301ffc9a760e01b6001600160e01b03198316145b92915050565b60606000805461086790612f36565b80601f016020809104026020016040519081016040528092919081815260200182805461089390612f36565b80156108e05780601f106108b5576101008083540402835291602001916108e0565b820191906000526020600020905b8154815290600101906020018083116108c357829003601f168201915b5050505050905090565b60006108f582611f1e565b506000908152600460205260409020546001600160a01b031690565b600061091c826111d5565b9050806001600160a01b0316836001600160a01b03160361098e5760405162461bcd60e51b815260206004820152602160248201527f4552433732313a20617070726f76616c20746f2063757272656e74206f776e656044820152603960f91b60648201526084015b60405180910390fd5b336001600160a01b03821614806109aa57506109aa813361073f565b610a1c5760405162461bcd60e51b815260206004820152603d60248201527f4552433732313a20617070726f76652063616c6c6572206973206e6f7420746f60448201527f6b656e206f776e6572206f7220617070726f76656420666f7220616c6c0000006064820152608401610985565b610a268383611f7d565b505050565b600d8181548110610a3b57600080fd5b600091825260209091200154905081565b610a54611feb565b6009805463ffffffff191663ffffffff92909216919091179055565b610a78611feb565b6007805460ff60a01b1916600160a01b179055565b600b8054610a9a90612f36565b80601f0160208091040260200160405190810160405280929190818152602001828054610ac690612f36565b8015610b135780601f10610ae857610100808354040283529160200191610b13565b820191906000526020600020905b815481529060010190602001808311610af657829003601f168201915b505050505081565b610b25338261204b565b610b415760405162461bcd60e51b815260040161098590612f70565b610a268383836120ca565b610b54612243565b6080831115610b9b5760405162461bcd60e51b8152602060048201526013602482015272443144433a206e616d6520746f6f206c6f6e6760681b6044820152606401610985565b610400811115610be25760405162461bcd60e51b8152602060048201526012602482015271443144433a2075726c20746f6f206c6f6e6760701b6044820152606401610985565b60008484604051610bf4929190612fbd565b60408051918290039091206000818152600a60205291822090925090610c1983610fd5565b905034811115610c6b5760405162461bcd60e51b815260206004820152601a60248201527f443144433a20696e73756666696369656e74207061796d656e740000000000006044820152606401610985565b81546001830182905563ffffffff4216600160a01b0263ffffffff60a01b1933166001600160c01b03198316171783556001600160a01b03168415610cbb5760028301610cb9868883613013565b505b600b610cc8888a83613013565b506000848152600260205260409020546001600160a01b031615610d0657610d0181338660405180602001604052806000815250612289565b610d6a565b8787600a6000600c604051610d1b91906130d2565b604051809103902081526020019081526020016000206004019182610d41929190613013565b5060038301610d51600c82613148565b50600c610d5f888a83613013565b50610d6a33856122bc565b600754604051637ae2b9c160e11b81523360048201526001600160a01b039091169063f5c5738290602401600060405180830381865afa158015610db2573d6000803e3d6000fd5b505050506040513d6000823e601f3d908101601f19168201604052610dda9190810190613224565b51600003610e4957600754604051630c4876c760e21b81526001600160a01b0390911690633121db1c90610e169033908c908c906004016132c3565b600060405180830381600087803b158015610e3057600080fd5b505af1158015610e44573d6000803e3d6000fd5b505050505b6000610e5583346132fe565b90508015610eee57604051600090339083908381818185875af1925050503d8060008114610e9f576040519150601f19603f3d011682016040523d82523d6000602084013e610ea4565b606091505b5050905080610eec5760405162461bcd60e51b815260206004820152601460248201527363616e6e6f7420726566756e642065786365737360601b6044820152606401610985565b505b6040513390610f00908b908b90612fbd565b60405180910390207ff1d86ac814e2a6b7710c558956057aa8ca4d67a2b19ea13b9dc84c92945c9896858a8a604051610f3b93929190613311565b60405180910390a3505050505050505050565b610f56611feb565b600954604080516001600160a01b03600160401b9093048316815291831660208301527fe03b0e59900b6347a6bdef98fe51689d53064c5235a2ca9fc10a27c497ec7307910160405180910390a1600980546001600160a01b03909216600160401b0268010000000000000000600160e01b0319909216919091179055565b6000818152600a60205260408120600954815463ffffffff428116926110079290821691600160a01b9091041661332b565b63ffffffff161161101c575050600854919050565b80546001600160a01b0316331461105257600954600182015461104d91640100000000900463ffffffff169061334f565b611058565b80600101545b9392505050565b60065461010090046001600160a01b03166001600160a01b0316336001600160a01b031614806110a05750600954600160401b90046001600160a01b031633145b6110fb5760405162461bcd60e51b815260206004820152602660248201527f443144433a206d757374206265206f776e6572206f7220726576656e7565206160448201526518d8dbdd5b9d60d21b6064820152608401610985565b600954604051600091600160401b90046001600160a01b03169047908381818185875af1925050503d806000811461114f576040519150601f19603f3d011682016040523d82523d6000602084013e611154565b606091505b50509050806111a55760405162461bcd60e51b815260206004820152601860248201527f443144433a206661696c656420746f20776974686472617700000000000000006044820152606401610985565b50565b6111b0611feb565b6111b86122d6565b565b610a26838383604051806020016040528060008152506115e1565b6000818152600260205260408120546001600160a01b0316806108525760405162461bcd60e51b8152602060048201526018602482015277115490cdcc8c4e881a5b9d985b1a59081d1bdad95b88125160421b6044820152606401610985565b60006001600160a01b03821661129f5760405162461bcd60e51b815260206004820152602960248201527f4552433732313a2061646472657373207a65726f206973206e6f7420612076616044820152683634b21037bbb732b960b91b6064820152608401610985565b506001600160a01b031660009081526003602052604090205490565b6112c3611feb565b6111b86000612328565b606082821161132a5760405162461bcd60e51b8152602060048201526024808201527f443144433a20656e64206d7573742062652067726561746572207468616e20736044820152631d185c9d60e21b6064820152608401610985565b600061133684846132fe565b6001600160401b0381111561134d5761134d612ca3565b604051908082528060200260200182016040528015611376578160200160208202803683370190505b509050835b838110156113db57600d818154811061139657611396613366565b90600052602060002001548286836113ae91906132fe565b815181106113be576113be613366565b6020908102919091010152806113d38161337c565b91505061137b565b509392505050565b6113eb612243565b336001600160a01b0316600a60008686604051611409929190612fbd565b60408051918290039091208252602082019290925201600020546001600160a01b03161461146b5760405162461bcd60e51b815260206004820152600f60248201526e2218a2219d103737ba1037bbb732b960891b6044820152606401610985565b6104008111156114b25760405162461bcd60e51b8152602060048201526012602482015271443144433a2075726c20746f6f206c6f6e6760701b6044820152606401610985565b60405133906114c49086908690612fbd565b60405180910390207f096f0aee78aea5199be1c1bf75f83f8c98e7002651030cbe56c0ca959cdd24c5600a60008888604051611501929190612fbd565b60405180910390208152602001908152602001600020600201858560405161152b93929190613395565b60405180910390a38181600a60008787604051611549929190612fbd565b60405180910390208152602001908152602001600020600201918261156f929190613013565b5050505050565b61157e611feb565b6111b8612382565b61158e611feb565b6009805463ffffffff9092166401000000000267ffffffff0000000019909216919091179055565b60606001805461086790612f36565b6115d03383836123bf565b5050565b600c8054610a9a90612f36565b6115eb338361204b565b6116075760405162461bcd60e51b815260040161098590612f70565b61161384848484612289565b50505050565b611621611feb565b6001600160a01b0381166116775760405162461bcd60e51b815260206004820152601e60248201527f5265736f6c7665722061646472657373206d757374206e6f74206265203000006044820152606401610985565b600780546001600160a01b0319166001600160a01b0383169081179091556040517feae17a84d9eb83d8c8eb317f9e7d64857bc363fa51674d996c023f4340c577cf90600090a250565b60606116cc82611f1e565b60006116e360408051602081019091526000815290565b905060008151116117035760405180602001604052806000815250611058565b8061170d8461248d565b60405160200161171e929190613436565b6040516020818303038152906040529392505050565b61173c611feb565b600754600160a01b900460ff16156117965760405162461bcd60e51b815260206004820152601960248201527f443144433a20616c726561647920696e697469616c697a6564000000000000006044820152606401610985565b8281146117dc5760405162461bcd60e51b81526020600482015260146024820152730886288867440eadccae2eac2d840d8cadccee8d60631b6044820152606401610985565b60005b81811015611b0c5760008585838181106117fb576117fb613366565b905060200281019061180d9190613465565b60405161181b929190612fbd565b6040518091039020905083838381811061183757611837613366565b905060200281019061184991906134ab565b6000828152600a6020526040902061186182826134cb565b5050600d8054600181019091557fd7b6990105719101dabeb77144f2a3385c8033acd3af97e9423a695e81ad1eb5018190556000818152600a60205260409020546001600160a01b0316156119f5576000818152600a60205260409020546118d2906001600160a01b0316826122bc565b6007546000828152600a602052604090819020549051637ae2b9c160e11b81526001600160a01b03918216600482015291169063f5c5738290602401600060405180830381865afa15801561192b573d6000803e3d6000fd5b505050506040513d6000823e601f3d908101601f191682016040526119539190810190613224565b516000036119f5576007546000828152600a60205260409020546001600160a01b0391821691633121db1c911688888681811061199257611992613366565b90506020028101906119a49190613465565b6040518463ffffffff1660e01b81526004016119c2939291906132c3565b600060405180830381600087803b1580156119dc57600080fd5b505af11580156119f0573d6000803e3d6000fd5b505050505b60018210158015611a2157506000818152600a602052604090206003018054611a1d90612f36565b1590505b15611a73578585611a336001856132fe565b818110611a4257611a42613366565b9050602002810190611a549190613465565b6000838152600a6020526040902060030191611a71919083613013565b505b611a7e6001846132fe565b82108015611aa757506000818152600a602052604090206004018054611aa390612f36565b1590505b15611af9578585611ab9846001613583565b818110611ac857611ac8613366565b9050602002810190611ada9190613465565b6000838152600a6020526040902060040191611af7919083613013565b505b5080611b048161337c565b9150506117df565b508383611b1a6001826132fe565b818110611b2957611b29613366565b9050602002810190611b3b9190613465565b600c91611b49919083613013565b50600b61156f600c82613148565b611b5f612243565b336001600160a01b0316600a60008484604051611b7d929190612fbd565b60408051918290039091208252602082019290925201600020546001600160a01b031614611bdf5760405162461bcd60e51b815260206004820152600f60248201526e2218a2219d103737ba1037bbb732b960891b6044820152606401610985565b600754604051630c4876c760e21b81526001600160a01b0390911690633121db1c90611c13903390869086906004016132c3565b600060405180830381600087803b158015611c2d57600080fd5b505af1158015611c41573d6000803e3d6000fd5b505050505050565b611c51611feb565b600855565b600a602052600090815260409020805460018201546002830180546001600160a01b03841694600160a01b90940463ffffffff16939190611c9690612f36565b80601f0160208091040260200160405190810160405280929190818152602001828054611cc290612f36565b8015611d0f5780601f10611ce457610100808354040283529160200191611d0f565b820191906000526020600020905b815481529060010190602001808311611cf257829003601f168201915b505050505090806003018054611d2490612f36565b80601f0160208091040260200160405190810160405280929190818152602001828054611d5090612f36565b8015611d9d5780601f10611d7257610100808354040283529160200191611d9d565b820191906000526020600020905b815481529060010190602001808311611d8057829003601f168201915b505050505090806004018054611db290612f36565b80601f0160208091040260200160405190810160405280929190818152602001828054611dde90612f36565b8015611e2b5780601f10611e0057610100808354040283529160200191611e2b565b820191906000526020600020905b815481529060010190602001808311611e0e57829003601f168201915b5050505050905086565b611e3d611feb565b6001600160a01b038116611ea25760405162461bcd60e51b815260206004820152602660248201527f4f776e61626c653a206e6577206f776e657220697320746865207a65726f206160448201526564647265737360d01b6064820152608401610985565b6111a581612328565b600754604051637ae2b9c160e11b81526001600160a01b038381166004830152606092169063f5c5738290602401600060405180830381865afa158015611ef6573d6000803e3d6000fd5b505050506040513d6000823e601f3d908101601f191682016040526108529190810190613224565b6000818152600260205260409020546001600160a01b03166111a55760405162461bcd60e51b8152602060048201526018602482015277115490cdcc8c4e881a5b9d985b1a59081d1bdad95b88125160421b6044820152606401610985565b600081815260046020526040902080546001600160a01b0319166001600160a01b0384169081179091558190611fb2826111d5565b6001600160a01b03167f8c5be1e5ebec7d5bd14f71427d1e84f3dd0314c0f7b2291e5b200ac8c7c3b92560405160405180910390a45050565b6006546001600160a01b036101009091041633146111b85760405162461bcd60e51b815260206004820181905260248201527f4f776e61626c653a2063616c6c6572206973206e6f7420746865206f776e65726044820152606401610985565b600080612057836111d5565b9050806001600160a01b0316846001600160a01b0316148061209e57506001600160a01b0380821660009081526005602090815260408083209388168352929052205460ff165b806120c25750836001600160a01b03166120b7846108ea565b6001600160a01b0316145b949350505050565b826001600160a01b03166120dd826111d5565b6001600160a01b0316146121035760405162461bcd60e51b815260040161098590613596565b6001600160a01b0382166121655760405162461bcd60e51b8152602060048201526024808201527f4552433732313a207472616e7366657220746f20746865207a65726f206164646044820152637265737360e01b6064820152608401610985565b612172838383600161251f565b826001600160a01b0316612185826111d5565b6001600160a01b0316146121ab5760405162461bcd60e51b815260040161098590613596565b600081815260046020908152604080832080546001600160a01b03199081169091556001600160a01b0387811680865260038552838620805460001901905590871680865283862080546001019055868652600290945282852080549092168417909155905184937fddf252ad1be2c89b69c2b068fc378daa952ba7f163c4a11628f55a4df523b3ef91a4610a2683838360016125a7565b60065460ff16156111b85760405162461bcd60e51b815260206004820152601060248201526f14185d5cd8589b194e881c185d5cd95960821b6044820152606401610985565b6122948484846120ca565b6122a0848484846125d7565b6116135760405162461bcd60e51b8152600401610985906135db565b6115d08282604051806020016040528060008152506126d8565b6122de61270b565b6006805460ff191690557f5db9ee0a495bf2e6ff9c91a7834c1ba4fdd244a5e8aa4e537bd38aeae4b073aa335b6040516001600160a01b03909116815260200160405180910390a1565b600680546001600160a01b03838116610100818102610100600160a81b031985161790945560405193909204169182907f8be0079c531659141344cd1fd0a4f28419497f9722a3daafe3b4186f6b6457e090600090a35050565b61238a612243565b6006805460ff191660011790557f62e78cea01bee320cd4e420270b5ea74000d11b0c9f74754ebdbfc544b05a25861230b3390565b816001600160a01b0316836001600160a01b0316036124205760405162461bcd60e51b815260206004820152601960248201527f4552433732313a20617070726f766520746f2063616c6c6572000000000000006044820152606401610985565b6001600160a01b03838116600081815260056020908152604080832094871680845294825291829020805460ff191686151590811790915591519182527f17307eab39ab6107e8899845ad3d59bd9653f200f220920489ca2b5937696c31910160405180910390a3505050565b6060600061249a83612754565b60010190506000816001600160401b038111156124b9576124b9612ca3565b6040519080825280601f01601f1916602001820160405280156124e3576020820181803683370190505b5090508181016020015b600019016f181899199a1a9b1b9c1cb0b131b232b360811b600a86061a8153600a85049450846124ed57509392505050565b6001811115611613576001600160a01b03841615612565576001600160a01b0384166000908152600360205260408120805483929061255f9084906132fe565b90915550505b6001600160a01b03831615611613576001600160a01b0383166000908152600360205260408120805483929061259c908490613583565b909155505050505050565b506000908152600a6020526040902080546001600160a01b0319166001600160a01b039290921691909117905550565b60006001600160a01b0384163b156126cd57604051630a85bd0160e11b81526001600160a01b0385169063150b7a029061261b90339089908890889060040161362d565b6020604051808303816000875af1925050508015612656575060408051601f3d908101601f1916820190925261265391810190613660565b60015b6126b3573d808015612684576040519150601f19603f3d011682016040523d82523d6000602084013e612689565b606091505b5080516000036126ab5760405162461bcd60e51b8152600401610985906135db565b805181602001fd5b6001600160e01b031916630a85bd0160e11b1490506120c2565b506001949350505050565b6126e2838361282c565b6126ef60008484846125d7565b610a265760405162461bcd60e51b8152600401610985906135db565b60065460ff166111b85760405162461bcd60e51b815260206004820152601460248201527314185d5cd8589b194e881b9bdd081c185d5cd95960621b6044820152606401610985565b60008072184f03e93ff9f4daa797ed6e38ed64bf6a1f0160401b83106127935772184f03e93ff9f4daa797ed6e38ed64bf6a1f0160401b830492506040015b6d04ee2d6d415b85acef810000000083106127bf576d04ee2d6d415b85acef8100000000830492506020015b662386f26fc1000083106127dd57662386f26fc10000830492506010015b6305f5e10083106127f5576305f5e100830492506008015b612710831061280957612710830492506004015b6064831061281b576064830492506002015b600a83106108525760010192915050565b6001600160a01b0382166128825760405162461bcd60e51b815260206004820181905260248201527f4552433732313a206d696e7420746f20746865207a65726f20616464726573736044820152606401610985565b6000818152600260205260409020546001600160a01b0316156128e75760405162461bcd60e51b815260206004820152601c60248201527f4552433732313a20746f6b656e20616c7265616479206d696e746564000000006044820152606401610985565b6128f560008383600161251f565b6000818152600260205260409020546001600160a01b03161561295a5760405162461bcd60e51b815260206004820152601c60248201527f4552433732313a20746f6b656e20616c7265616479206d696e746564000000006044820152606401610985565b6001600160a01b038216600081815260036020908152604080832080546001019055848352600290915280822080546001600160a01b0319168417905551839291907fddf252ad1be2c89b69c2b068fc378daa952ba7f163c4a11628f55a4df523b3ef908290a46115d06000838360016125a7565b6001600160e01b0319811681146111a557600080fd5b6000602082840312156129f757600080fd5b8135611058816129cf565b60005b83811015612a1d578181015183820152602001612a05565b50506000910152565b60008151808452612a3e816020860160208601612a02565b601f01601f19169290920160200192915050565b6020815260006110586020830184612a26565b600060208284031215612a7757600080fd5b5035919050565b6001600160a01b03811681146111a557600080fd5b60008060408385031215612aa657600080fd5b8235612ab181612a7e565b946020939093013593505050565b63ffffffff811681146111a557600080fd5b600060208284031215612ae357600080fd5b813561105881612abf565b600080600060608486031215612b0357600080fd5b8335612b0e81612a7e565b92506020840135612b1e81612a7e565b929592945050506040919091013590565b60008083601f840112612b4157600080fd5b5081356001600160401b03811115612b5857600080fd5b602083019150836020828501011115612b7057600080fd5b9250929050565b60008060008060408587031215612b8d57600080fd5b84356001600160401b0380821115612ba457600080fd5b612bb088838901612b2f565b90965094506020870135915080821115612bc957600080fd5b50612bd687828801612b2f565b95989497509550505050565b600060208284031215612bf457600080fd5b813561105881612a7e565b60008060408385031215612c1257600080fd5b50508035926020909101359150565b6020808252825182820181905260009190848201906040850190845b81811015612c5957835183529284019291840191600101612c3d565b50909695505050505050565b60008060408385031215612c7857600080fd5b8235612c8381612a7e565b915060208301358015158114612c9857600080fd5b809150509250929050565b634e487b7160e01b600052604160045260246000fd5b604051601f8201601f191681016001600160401b0381118282101715612ce157612ce1612ca3565b604052919050565b60006001600160401b03821115612d0257612d02612ca3565b50601f01601f191660200190565b60008060008060808587031215612d2657600080fd5b8435612d3181612a7e565b93506020850135612d4181612a7e565b92506040850135915060608501356001600160401b03811115612d6357600080fd5b8501601f81018713612d7457600080fd5b8035612d87612d8282612ce9565b612cb9565b818152886020838501011115612d9c57600080fd5b8160208401602083013760006020838301015280935050505092959194509250565b60008083601f840112612dd057600080fd5b5081356001600160401b03811115612de757600080fd5b6020830191508360208260051b8501011115612b7057600080fd5b60008060008060408587031215612e1857600080fd5b84356001600160401b0380821115612e2f57600080fd5b612e3b88838901612dbe565b90965094506020870135915080821115612e5457600080fd5b50612bd687828801612dbe565b60008060208385031215612e7457600080fd5b82356001600160401b03811115612e8a57600080fd5b612e9685828601612b2f565b90969095509350505050565b60008060408385031215612eb557600080fd5b8235612ec081612a7e565b91506020830135612c9881612a7e565b60018060a01b038716815263ffffffff8616602082015284604082015260c060608201526000612f0360c0830186612a26565b8281036080840152612f158186612a26565b905082810360a0840152612f298185612a26565b9998505050505050505050565b600181811c90821680612f4a57607f821691505b602082108103612f6a57634e487b7160e01b600052602260045260246000fd5b50919050565b6020808252602d908201527f4552433732313a2063616c6c6572206973206e6f7420746f6b656e206f776e6560408201526c1c881bdc88185c1c1c9bdd9959609a1b606082015260800190565b8183823760009101908152919050565b601f821115610a2657600081815260208120601f850160051c81016020861015612ff45750805b601f850160051c820191505b81811015611c4157828155600101613000565b6001600160401b0383111561302a5761302a612ca3565b61303e836130388354612f36565b83612fcd565b6000601f841160018114613072576000851561305a5750838201355b600019600387901b1c1916600186901b17835561156f565b600083815260209020601f19861690835b828110156130a35786850135825560209485019460019092019101613083565b50868210156130c05760001960f88860031b161c19848701351681555b505060018560011b0183555050505050565b60008083546130e081612f36565b600182811680156130f8576001811461310d5761313c565b60ff198416875282151583028701945061313c565b8760005260208060002060005b858110156131335781548a82015290840190820161311a565b50505082870194505b50929695505050505050565b818103613153575050565b61315d8254612f36565b6001600160401b0381111561317457613174612ca3565b613188816131828454612f36565b84612fcd565b6000601f8211600181146131bc57600083156131a45750848201545b600019600385901b1c1916600184901b17845561156f565b600085815260209020601f19841690600086815260209020845b838110156131f657828601548255600195860195909101906020016131d6565b50858310156132145781850154600019600388901b60f8161c191681555b5050505050600190811b01905550565b60006020828403121561323657600080fd5b81516001600160401b0381111561324c57600080fd5b8201601f8101841361325d57600080fd5b805161326b612d8282612ce9565b81815285602083850101111561328057600080fd5b613291826020830160208601612a02565b95945050505050565b81835281816020850137506000828201602090810191909152601f909101601f19169091010190565b6001600160a01b0384168152604060208201819052600090613291908301848661329a565b634e487b7160e01b600052601160045260246000fd5b81810381811115610852576108526132e8565b83815260406020820152600061329160408301848661329a565b63ffffffff818116838216019080821115613348576133486132e8565b5092915050565b8082028115828204841417610852576108526132e8565b634e487b7160e01b600052603260045260246000fd5b60006001820161338e5761338e6132e8565b5060010190565b6040815260008085546133a781612f36565b80604086015260606001808416600081146133c957600181146133e357613414565b60ff1985168884015283151560051b880183019550613414565b8a60005260208060002060005b8681101561340b5781548b82018701529084019082016133f0565b8a018501975050505b5050505050828103602084015261342c81858761329a565b9695505050505050565b60008351613448818460208801612a02565b83519083019061345c818360208801612a02565b01949350505050565b6000808335601e1984360301811261347c57600080fd5b8301803591506001600160401b0382111561349657600080fd5b602001915036819003821315612b7057600080fd5b6000823560be198336030181126134c157600080fd5b9190910192915050565b81356134d681612a7e565b81546001600160a01b031981166001600160a01b03929092169182178355602084013561350281612abf565b6001600160c01b03199190911690911760a09190911b63ffffffff60a01b161781556040820135600182015561353b6060830183613465565b613549818360028601613013565b50506135586080830183613465565b613566818360038601613013565b505061357560a0830183613465565b611613818360048601613013565b80820180821115610852576108526132e8565b60208082526025908201527f4552433732313a207472616e736665722066726f6d20696e636f72726563742060408201526437bbb732b960d91b606082015260800190565b60208082526032908201527f4552433732313a207472616e7366657220746f206e6f6e20455243373231526560408201527131b2b4bb32b91034b6b83632b6b2b73a32b960711b606082015260800190565b6001600160a01b038581168252841660208201526040810183905260806060820181905260009061342c90830184612a26565b60006020828403121561367257600080fd5b8151611058816129cf56fea2646970667358221220675b65bdf791f2c4ad58741d3a304bc75c8394c611f03358ba0820cf1216f5e864736f6c63430008110033",
  "linkReferences": {},
  "deployedLinkReferences": {}
}